{
  "contractName": "UserDetails",
  "abi": [
    {
      "inputs": [
        {
          "internalType": "string",
          "name": "_uid",
          "type": "string"
        },
        {
          "internalType": "string",
          "name": "_hashKey1",
          "type": "string"
        },
        {
          "internalType": "string",
          "name": "_hashKey2",
          "type": "string"
        },
        {
          "internalType": "string",
          "name": "_uJson",
          "type": "string"
        }
      ],
      "name": "addUser",
      "outputs": [],
      "stateMutability": "nonpayable",
      "type": "function"
    },
    {
      "inputs": [
        {
          "internalType": "string",
          "name": "_uid",
          "type": "string"
        },
        {
          "internalType": "string",
          "name": "_hashKey1",
          "type": "string"
        },
        {
          "internalType": "string",
          "name": "_hashKey2",
          "type": "string"
        },
        {
          "internalType": "string",
          "name": "_uJson",
          "type": "string"
        }
      ],
      "name": "updateUser",
      "outputs": [
        {
          "internalType": "bool",
          "name": "",
          "type": "bool"
        }
      ],
      "stateMutability": "nonpayable",
      "type": "function"
    },
    {
      "inputs": [],
      "name": "getUser",
      "outputs": [
        {
          "components": [
            {
              "internalType": "string",
              "name": "uId",
              "type": "string"
            },
            {
              "internalType": "string",
              "name": "uJson",
              "type": "string"
            }
          ],
          "internalType": "struct UserDetails.UserData[]",
          "name": "",
          "type": "tuple[]"
        }
      ],
      "stateMutability": "view",
      "type": "function",
      "constant": true
    },
    {
      "inputs": [
        {
          "internalType": "string",
          "name": "_uid",
          "type": "string"
        }
      ],
      "name": "getUserById",
      "outputs": [
        {
          "internalType": "string",
          "name": "",
          "type": "string"
        }
      ],
      "stateMutability": "view",
      "type": "function",
      "constant": true
    },
    {
      "inputs": [
        {
          "internalType": "string",
          "name": "_hashKey1",
          "type": "string"
        },
        {
          "internalType": "string",
          "name": "_hashKey2",
          "type": "string"
        }
      ],
      "name": "getUserByHashKey",
      "outputs": [
        {
          "internalType": "bool",
          "name": "",
          "type": "bool"
        }
      ],
      "stateMutability": "view",
      "type": "function",
      "constant": true
    }
  ],
  "bytecode": "0x608060405234801561001057600080fd5b506110f1806100206000396000f3fe608060405234801561001057600080fd5b50600436106100575760003560e01c806301cda3ac1461005c578063379f8fc214610078578063786dc759146100a8578063832880e7146100d8578063b5c24a01146100f6575b600080fd5b61007660048036038101906100719190610ac3565b610126565b005b610092600480360381019061008d9190610b9a565b610253565b60405161009f9190610c6b565b60405180910390f35b6100c260048036038101906100bd9190610c8d565b6103af565b6040516100cf9190610d20565b60405180910390f35b6100e06105de565b6040516100ed9190610e8b565b60405180910390f35b610110600480360381019061010b9190610ac3565b610761565b60405161011d9190610d20565b60405180910390f35b60006040518060400160405280868152602001838152509050600081908060018154018082558091505060019003906000526020600020906002020160009091909190915060008201518160000190805190602001906101879291906108c6565b5060208201518160010190805190602001906101a49291906108c6565b505050600060405180606001604052808781526020018681526020018581525090506001819080600181540180825580915050600190039060005260206000209060030201600090919091909150600082015181600001908051906020019061020e9291906108c6565b50602082015181600101908051906020019061022b9291906108c6565b5060408201518160020190805190602001906102489291906108c6565b505050505050505050565b60608060005b6001805490508110156103a557836040516020016102779190610ee9565b60405160208183030381529060405280519060200120600182815481106102a1576102a0610f00565b5b90600052602060002090600302016000016040516020016102c29190611023565b604051602081830303815290604052805190602001200361039257600081815481106102f1576102f0610f00565b5b9060005260206000209060020201600101805461030d90610f5e565b80601f016020809104026020016040519081016040528092919081815260200182805461033990610f5e565b80156103865780601f1061035b57610100808354040283529160200191610386565b820191906000526020600020905b81548152906001019060200180831161036957829003601f168201915b505050505091506103a5565b808061039d90611073565b915050610259565b5080915050919050565b60008060018054905011156105d35760005b6001805490508110156105d157836040516020016103df9190610ee9565b604051602081830303815290604052805190602001206001828154811061040957610408610f00565b5b906000526020600020906003020160010160405160200161042a9190611023565b6040516020818303038152906040528051906020012014806104bb5750826040516020016104589190610ee9565b604051602081830303815290604052805190602001206001828154811061048257610481610f00565b5b90600052602060002090600302016001016040516020016104a39190611023565b60405160208183030381529060405280519060200120145b806105355750836040516020016104d29190610ee9565b60405160208183030381529060405280519060200120600182815481106104fc576104fb610f00565b5b906000526020600020906003020160020160405160200161051d9190611023565b60405160208183030381529060405280519060200120145b806105af57508260405160200161054c9190610ee9565b604051602081830303815290604052805190602001206001828154811061057657610575610f00565b5b90600052602060002090600302016002016040516020016105979190611023565b60405160208183030381529060405280519060200120145b156105be5760019150506105d8565b80806105c990611073565b9150506103c1565b505b600090505b92915050565b60606000805480602002602001604051908101604052809291908181526020016000905b82821015610758578382906000526020600020906002020160405180604001604052908160008201805461063590610f5e565b80601f016020809104026020016040519081016040528092919081815260200182805461066190610f5e565b80156106ae5780601f10610683576101008083540402835291602001916106ae565b820191906000526020600020905b81548152906001019060200180831161069157829003601f168201915b505050505081526020016001820180546106c790610f5e565b80601f01602080910402602001604051908101604052809291908181526020018280546106f390610f5e565b80156107405780601f1061071557610100808354040283529160200191610740565b820191906000526020600020905b81548152906001019060200180831161072357829003601f168201915b50505050508152505081526020019060010190610602565b50505050905090565b600080600090505b6001805490508110156108b857856040516020016107879190610ee9565b60405160208183030381529060405280519060200120600182815481106107b1576107b0610f00565b5b90600052602060002090600302016000016040516020016107d29190611023565b60405160208183030381529060405280519060200120036108a557846001828154811061080257610801610f00565b5b906000526020600020906003020160010190805190602001906108269291906108c6565b50836001828154811061083c5761083b610f00565b5b906000526020600020906003020160020190805190602001906108609291906108c6565b50826000828154811061087657610875610f00565b5b9060005260206000209060020201600101908051906020019061089a9291906108c6565b5060019150506108be565b80806108b090611073565b915050610769565b50600090505b949350505050565b8280546108d290610f5e565b90600052602060002090601f0160209004810192826108f4576000855561093b565b82601f1061090d57805160ff191683800117855561093b565b8280016001018555821561093b579182015b8281111561093a57825182559160200191906001019061091f565b5b509050610948919061094c565b5090565b5b8082111561096557600081600090555060010161094d565b5090565b6000604051905090565b600080fd5b600080fd5b600080fd5b600080fd5b6000601f19601f8301169050919050565b7f4e487b7100000000000000000000000000000000000000000000000000000000600052604160045260246000fd5b6109d082610987565b810181811067ffffffffffffffff821117156109ef576109ee610998565b5b80604052505050565b6000610a02610969565b9050610a0e82826109c7565b919050565b600067ffffffffffffffff821115610a2e57610a2d610998565b5b610a3782610987565b9050602081019050919050565b82818337600083830152505050565b6000610a66610a6184610a13565b6109f8565b905082815260208101848484011115610a8257610a81610982565b5b610a8d848285610a44565b509392505050565b600082601f830112610aaa57610aa961097d565b5b8135610aba848260208601610a53565b91505092915050565b60008060008060808587031215610add57610adc610973565b5b600085013567ffffffffffffffff811115610afb57610afa610978565b5b610b0787828801610a95565b945050602085013567ffffffffffffffff811115610b2857610b27610978565b5b610b3487828801610a95565b935050604085013567ffffffffffffffff811115610b5557610b54610978565b5b610b6187828801610a95565b925050606085013567ffffffffffffffff811115610b8257610b81610978565b5b610b8e87828801610a95565b91505092959194509250565b600060208284031215610bb057610baf610973565b5b600082013567ffffffffffffffff811115610bce57610bcd610978565b5b610bda84828501610a95565b91505092915050565b600081519050919050565b600082825260208201905092915050565b60005b83811015610c1d578082015181840152602081019050610c02565b83811115610c2c576000848401525b50505050565b6000610c3d82610be3565b610c478185610bee565b9350610c57818560208601610bff565b610c6081610987565b840191505092915050565b60006020820190508181036000830152610c858184610c32565b905092915050565b60008060408385031215610ca457610ca3610973565b5b600083013567ffffffffffffffff811115610cc257610cc1610978565b5b610cce85828601610a95565b925050602083013567ffffffffffffffff811115610cef57610cee610978565b5b610cfb85828601610a95565b9150509250929050565b60008115159050919050565b610d1a81610d05565b82525050565b6000602082019050610d356000830184610d11565b92915050565b600081519050919050565b600082825260208201905092915050565b6000819050602082019050919050565b600082825260208201905092915050565b6000610d8382610be3565b610d8d8185610d67565b9350610d9d818560208601610bff565b610da681610987565b840191505092915050565b60006040830160008301518482036000860152610dce8282610d78565b91505060208301518482036020860152610de88282610d78565b9150508091505092915050565b6000610e018383610db1565b905092915050565b6000602082019050919050565b6000610e2182610d3b565b610e2b8185610d46565b935083602082028501610e3d85610d57565b8060005b85811015610e795784840389528151610e5a8582610df5565b9450610e6583610e09565b925060208a01995050600181019050610e41565b50829750879550505050505092915050565b60006020820190508181036000830152610ea58184610e16565b905092915050565b600081905092915050565b6000610ec382610be3565b610ecd8185610ead565b9350610edd818560208601610bff565b80840191505092915050565b6000610ef58284610eb8565b915081905092915050565b7f4e487b7100000000000000000000000000000000000000000000000000000000600052603260045260246000fd5b7f4e487b7100000000000000000000000000000000000000000000000000000000600052602260045260246000fd5b60006002820490506001821680610f7657607f821691505b602082108103610f8957610f88610f2f565b5b50919050565b60008190508160005260206000209050919050565b60008154610fb181610f5e565b610fbb8186610ead565b94506001821660008114610fd65760018114610fe75761101a565b60ff1983168652818601935061101a565b610ff085610f8f565b60005b8381101561101257815481890152600182019150602081019050610ff3565b838801955050505b50505092915050565b600061102f8284610fa4565b915081905092915050565b7f4e487b7100000000000000000000000000000000000000000000000000000000600052601160045260246000fd5b6000819050919050565b600061107e82611069565b91507fffffffffffffffffffffffffffffffffffffffffffffffffffffffffffffffff82036110b0576110af61103a565b5b60018201905091905056fea26469706673582212207a84ea1bdaa586d9de0d2788aa7be2d302130a02e18dc5b8d72040c146e35ef364736f6c634300080e0033",
  "immutableReferences": {},
  "source": "// SPDX-License-Identifier: MIT\r\npragma solidity >=0.4.22 <0.9.0;\r\n\r\ncontract UserDetails\r\n{\r\n  struct UserHash {\r\n        string uId;\r\n        string hashKey1;\r\n        string hashKey2;\r\n     }\r\n\r\n    struct UserData {\r\n        string uId;\r\n        string uJson;\r\n     }\r\n    \r\n    UserData[] _data;\r\n    UserHash[] _hashkeys;\r\n\r\n    function addUser(string memory _uid, string memory _hashKey1, string memory _hashKey2, string memory _uJson) public{\r\n      UserData memory ud = UserData (_uid, _uJson);\r\n      _data.push(ud);\r\n\r\n      UserHash memory uh = UserHash (_uid, _hashKey1, _hashKey2);\r\n      _hashkeys.push(uh);\r\n    }\r\n\r\n    function updateUser(string memory _uid, string memory _hashKey1, string memory _hashKey2, string memory _uJson) \r\n    public returns(bool)\r\n    { \r\n      for(uint i=0; i< _hashkeys.length; i++)\r\n      {\r\n        if (keccak256(abi.encodePacked(_hashkeys[i].uId)) == keccak256(abi.encodePacked(_uid))){\r\n           _hashkeys[i].hashKey1 = _hashKey1;\r\n           _hashkeys[i].hashKey2 = _hashKey2;\r\n           _data[i].uJson = _uJson;\r\n          return true;\r\n          }\r\n      }\r\n       return false; \r\n    }\r\n\r\n    function getUser() public view returns(UserData[] memory)\r\n    {\r\n      return _data;\r\n    } \r\n\r\n    function getUserById(string memory _uid) public view returns(string memory)\r\n    {\r\n      string memory _uData;\r\n      for(uint i=0; i< _hashkeys.length; i++)\r\n      {\r\n        if (keccak256(abi.encodePacked(_hashkeys[i].uId)) == keccak256(abi.encodePacked(_uid))){\r\n            _uData = _data[i].uJson;\r\n            break;\r\n          }\r\n      }\r\n      return _uData;\r\n    }\r\n\r\n     function getUserByHashKey(string  memory _hashKey1, string  memory _hashKey2) public view returns(bool)\r\n    {\r\n      if(_hashkeys.length > 0){\r\n      for(uint i=0; i< _hashkeys.length; i++)\r\n      {\r\n       if (keccak256(abi.encodePacked(_hashkeys[i].hashKey1)) == keccak256(abi.encodePacked(_hashKey1)) ||\r\n           keccak256(abi.encodePacked(_hashkeys[i].hashKey1)) == keccak256(abi.encodePacked(_hashKey2)) ||\r\n           keccak256(abi.encodePacked(_hashkeys[i].hashKey2)) == keccak256(abi.encodePacked(_hashKey1)) ||\r\n           keccak256(abi.encodePacked(_hashkeys[i].hashKey2)) == keccak256(abi.encodePacked(_hashKey2))\r\n        ) {\r\n          return true;\r\n          }\r\n      }\r\n      }\r\n      return false;\r\n    } \r\n}",
  "sourcePath": "C:\\idmanagementproj\\contracts\\UserDetails.sol",
  "compiler": {
    "name": "solc",
    "version": "0.8.14+commit.80d49f37.Emscripten.clang"
  },
  "schemaVersion": "3.4.10",
  "updatedAt": "2022-10-13T04:37:48.515Z",
  "networkType": "ethereum",
  "devdoc": {
    "kind": "dev",
    "methods": {},
    "version": 1
  },
  "userdoc": {
    "kind": "user",
    "methods": {},
    "version": 1
  }
}